{
  "_format": "hh-sol-artifact-1",
  "contractName": "Arena",
  "sourceName": "contracts/Arena.sol",
  "abi": [
    {
      "anonymous": false,
      "inputs": [
        {
          "indexed": false,
          "internalType": "address",
          "name": "playerAddress",
          "type": "address"
        }
      ],
      "name": "ActionFailed",
      "type": "event"
    },
    {
      "anonymous": false,
      "inputs": [
        {
          "indexed": false,
          "internalType": "address",
          "name": "playerAddress",
          "type": "address"
        }
      ],
      "name": "ActionSuccess",
      "type": "event"
    },
    {
      "anonymous": false,
      "inputs": [
        {
          "indexed": false,
          "internalType": "address",
          "name": "attackerAddress",
          "type": "address"
        },
        {
          "indexed": false,
          "internalType": "address",
          "name": "targetAddress",
          "type": "address"
        },
        {
          "indexed": false,
          "internalType": "bool",
          "name": "success",
          "type": "bool"
        },
        {
          "indexed": false,
          "internalType": "bool",
          "name": "defended",
          "type": "bool"
        }
      ],
      "name": "AttackHappened",
      "type": "event"
    },
    {
      "anonymous": false,
      "inputs": [
        {
          "indexed": false,
          "internalType": "address",
          "name": "playerAddress",
          "type": "address"
        }
      ],
      "name": "DiedHappened",
      "type": "event"
    },
    {
      "anonymous": false,
      "inputs": [
        {
          "indexed": false,
          "internalType": "address",
          "name": "winner",
          "type": "address"
        }
      ],
      "name": "GameEnded",
      "type": "event"
    },
    {
      "anonymous": false,
      "inputs": [],
      "name": "GameStarted",
      "type": "event"
    },
    {
      "anonymous": false,
      "inputs": [
        {
          "indexed": false,
          "internalType": "address",
          "name": "playerAddress",
          "type": "address"
        },
        {
          "indexed": false,
          "internalType": "string",
          "name": "name",
          "type": "string"
        }
      ],
      "name": "PlayerRegistered",
      "type": "event"
    },
    {
      "anonymous": false,
      "inputs": [
        {
          "indexed": false,
          "internalType": "address",
          "name": "playerAddress",
          "type": "address"
        }
      ],
      "name": "RestHappened",
      "type": "event"
    },
    {
      "anonymous": false,
      "inputs": [
        {
          "indexed": false,
          "internalType": "uint256",
          "name": "turnNumber",
          "type": "uint256"
        },
        {
          "indexed": false,
          "internalType": "address[]",
          "name": "playerAddrs",
          "type": "address[]"
        },
        {
          "indexed": false,
          "internalType": "uint256[]",
          "name": "xs",
          "type": "uint256[]"
        },
        {
          "indexed": false,
          "internalType": "uint256[]",
          "name": "ys",
          "type": "uint256[]"
        },
        {
          "indexed": false,
          "internalType": "uint256[]",
          "name": "healths",
          "type": "uint256[]"
        }
      ],
      "name": "TurnPlayed",
      "type": "event"
    },
    {
      "inputs": [],
      "name": "gameStarted",
      "outputs": [
        {
          "internalType": "bool",
          "name": "",
          "type": "bool"
        }
      ],
      "stateMutability": "view",
      "type": "function"
    },
    {
      "inputs": [],
      "name": "getGameState",
      "outputs": [
        {
          "internalType": "address[]",
          "name": "playerAddrs",
          "type": "address[]"
        },
        {
          "internalType": "uint256[]",
          "name": "xs",
          "type": "uint256[]"
        },
        {
          "internalType": "uint256[]",
          "name": "ys",
          "type": "uint256[]"
        },
        {
          "internalType": "uint256[]",
          "name": "healths",
          "type": "uint256[]"
        }
      ],
      "stateMutability": "view",
      "type": "function"
    },
    {
      "inputs": [],
      "name": "getNumPlayers",
      "outputs": [
        {
          "internalType": "uint256",
          "name": "",
          "type": "uint256"
        }
      ],
      "stateMutability": "view",
      "type": "function"
    },
    {
      "inputs": [],
      "name": "gridSize",
      "outputs": [
        {
          "internalType": "uint256",
          "name": "",
          "type": "uint256"
        }
      ],
      "stateMutability": "view",
      "type": "function"
    },
    {
      "inputs": [],
      "name": "maxTurns",
      "outputs": [
        {
          "internalType": "uint256",
          "name": "",
          "type": "uint256"
        }
      ],
      "stateMutability": "view",
      "type": "function"
    },
    {
      "inputs": [],
      "name": "playTurn",
      "outputs": [],
      "stateMutability": "nonpayable",
      "type": "function"
    },
    {
      "inputs": [
        {
          "internalType": "uint256",
          "name": "",
          "type": "uint256"
        }
      ],
      "name": "playerAddresses",
      "outputs": [
        {
          "internalType": "address",
          "name": "",
          "type": "address"
        }
      ],
      "stateMutability": "view",
      "type": "function"
    },
    {
      "inputs": [
        {
          "internalType": "address",
          "name": "",
          "type": "address"
        }
      ],
      "name": "players",
      "outputs": [
        {
          "internalType": "address",
          "name": "playerAddress",
          "type": "address"
        },
        {
          "internalType": "uint256",
          "name": "x",
          "type": "uint256"
        },
        {
          "internalType": "uint256",
          "name": "y",
          "type": "uint256"
        },
        {
          "internalType": "uint256",
          "name": "health",
          "type": "uint256"
        },
        {
          "internalType": "uint256",
          "name": "defenseBuff",
          "type": "uint256"
        },
        {
          "internalType": "string",
          "name": "name",
          "type": "string"
        }
      ],
      "stateMutability": "view",
      "type": "function"
    },
    {
      "inputs": [
        {
          "internalType": "address[]",
          "name": "playerContracts",
          "type": "address[]"
        }
      ],
      "name": "registerMultiplePlayers",
      "outputs": [],
      "stateMutability": "nonpayable",
      "type": "function"
    },
    {
      "inputs": [
        {
          "internalType": "address",
          "name": "playerContract",
          "type": "address"
        }
      ],
      "name": "registerPlayer",
      "outputs": [],
      "stateMutability": "nonpayable",
      "type": "function"
    },
    {
      "inputs": [],
      "name": "startGame",
      "outputs": [],
      "stateMutability": "nonpayable",
      "type": "function"
    },
    {
      "inputs": [],
      "name": "totalTurns",
      "outputs": [
        {
          "internalType": "uint256",
          "name": "",
          "type": "uint256"
        }
      ],
      "stateMutability": "view",
      "type": "function"
    }
  ],
  "bytecode": "0x6080604052600a60009081556001805460ff19169055600255606460035534801561002957600080fd5b506121ab806100396000396000f3fe608060405234801561001057600080fd5b50600436106100b45760003560e01c806379f9607d1161007157806379f9607d1461014d578063a764366614610156578063b7d0628b1461015e578063d65ab5f214610176578063e142feac1461017e578063e2eb41ff1461018757600080fd5b806315c6aee2146100b957806330dad815146100e957806351f470041461010057806355c9e926146101155780635e123ce41461011d5780636b5cc6d91461013a575b600080fd5b6100cc6100c7366004611ab7565b6101ac565b6040516001600160a01b0390911681526020015b60405180910390f35b6100f260035481565b6040519081526020016100e0565b61011361010e366004611b2c565b6101d6565b005b6005546100f2565b60015461012a9060ff1681565b60405190151581526020016100e0565b610113610148366004611bde565b61021a565b6100f260005481565b6101136104bc565b61016661094d565b6040516100e09493929190611c6f565b610113610b71565b6100f260025481565b61019a610195366004611bde565b610c7a565b6040516100e096959493929190611d17565b600581815481106101bc57600080fd5b6000918252602090912001546001600160a01b0316905081565b60005b8151811015610216576102048282815181106101f7576101f7611d50565b602002602001015161021a565b8061020e81611d7c565b9150506101d9565b5050565b60015460ff16156102725760405162461bcd60e51b815260206004820152601860248201527f47616d652068617320616c72656164792073746172746564000000000000000060448201526064015b60405180910390fd5b6001600160a01b0381166102c85760405162461bcd60e51b815260206004820152601f60248201527f496e76616c696420706c6179657220636f6e74726163742061646472657373006044820152606401610269565b6001600160a01b0381811660009081526004602052604090205416156103305760405162461bcd60e51b815260206004820152601960248201527f506c6179657220616c72656164792072656769737465726564000000000000006044820152606401610269565b6000816001600160a01b03166306fdde036040518163ffffffff1660e01b8152600401600060405180830381865afa158015610370573d6000803e3d6000fd5b505050506040513d6000823e601f3d908101601f191682016040526103989190810190611d95565b6040805160c0810182526001600160a01b03858116808352600060208085018281528587018381526064606088019081526080880185815260a089018b815296865260049485905298909420875181546001600160a01b03191697169690961786559051600186015551600285015590516003840155935193820193909355915192935091829190600582019061042f9082611eb1565b5050600580546001810182556000919091527f036b6384b5eca791c62761152d0c79bb0604c104a5fb6f4eb0703f3154bb3db00180546001600160a01b0319166001600160a01b038616179055506040517fe04d23b73ae3d3b27074da9719b5a4cd521395aaf86bfe7e374933ecb567731a906104af9085908590611f71565b60405180910390a1505050565b60015460ff1661050e5760405162461bcd60e51b815260206004820152601860248201527f47616d6520686173206e6f7420737461727465642079657400000000000000006044820152606401610269565b6002805490600061051e83611d7c565b909155505060055460009067ffffffffffffffff81111561054157610541611ad0565b60405190808252806020026020018201604052801561059757816020015b6105846040805160608101909152806000815260200160008152600060209091015290565b81526020019060019003908161055f5790505b5060055490915062030d409060009067ffffffffffffffff8111156105be576105be611ad0565b6040519080825280602002602001820160405280156105e7578160200160208202803683370190505b5060055490915060009067ffffffffffffffff81111561060957610609611ad0565b604051908082528060200260200182016040528015610632578160200160208202803683370190505b50905060008060008061064361094d565b935093509350935060005b845181101561081257600085828151811061066b5761066b611d50565b60200260200101519050600083838151811061068957610689611d50565b602002602001015111156107d957604051636f8f3ef360e11b81526001600160a01b0382169063df1e7de6908b906106cb908a908a908a908a90600401611c6f565b6060604051808303818786fa93505050508015610705575060408051601f3d908101601f1916820190925261070291810190611f9d565b60015b61077157610711610d45565b8a838151811061072357610723611d50565b6020908102919091018101919091526040516001600160a01b03831681527fbc813f4973f042febf99889236238062096b2dd4979dc550e396dbf0f2e86c79910160405180910390a16107ff565b6040516001600160a01b03831681527f702d471d1b7c122f1c3610b9be1f9ae1a74c70c92b21125c93364c96cfaf9a929060200160405180910390a16107b681610d8e565b8b84815181106107c8576107c8611d50565b6020026020010181905250506107ff565b6107e1610d45565b8a83815181106107f3576107f3611d50565b60200260200101819052505b508061080a81611d7c565b91505061064e565b5061081e888787610e0c565b61082886866112c0565b61083061094d565b60025460405194985092965090945092507fa908a97263ad0cd1c787eabeafe72d238ffd33cb882be25cc57aa311f1dde0749161087591908790879087908790612017565b60405180910390a16108856113e2565b156108e3576001805460ff19169055600061089e611472565b6040516001600160a01b03821681529091507f51b77d00d3c0b7e376e9ee146711ceb2c08e58a5dbe38055a618e52109f720c19060200160405180910390a150610943565b60035460025410610943576001805460ff1916905560006109026114e6565b6040516001600160a01b03821681529091507f51b77d00d3c0b7e376e9ee146711ceb2c08e58a5dbe38055a618e52109f720c19060200160405180910390a1505b5050505050505050565b6005546060908190819081908067ffffffffffffffff81111561097257610972611ad0565b60405190808252806020026020018201604052801561099b578160200160208202803683370190505b5094508067ffffffffffffffff8111156109b7576109b7611ad0565b6040519080825280602002602001820160405280156109e0578160200160208202803683370190505b5093508067ffffffffffffffff8111156109fc576109fc611ad0565b604051908082528060200260200182016040528015610a25578160200160208202803683370190505b5092508067ffffffffffffffff811115610a4157610a41611ad0565b604051908082528060200260200182016040528015610a6a578160200160208202803683370190505b50915060005b81811015610b6957600060058281548110610a8d57610a8d611d50565b60009182526020808320909101546001600160a01b0316808352600490915260409091208851919250908290899085908110610acb57610acb611d50565b60200260200101906001600160a01b031690816001600160a01b0316815250508060010154878481518110610b0257610b02611d50565b6020026020010181815250508060020154868481518110610b2557610b25611d50565b6020026020010181815250508060030154858481518110610b4857610b48611d50565b60200260200101818152505050508080610b6190611d7c565b915050610a70565b505090919293565b60055460021115610be05760405162461bcd60e51b815260206004820152603360248201527f4174206c656173742074776f20706c61796572732061726520726571756972656044820152726420746f207374617274207468652067616d6560681b6064820152608401610269565b610be8611581565b6001805460ff1916811790556040517f762f260439bb4be3ef6e4dc2786e2e7bd187d3d80b79057d7a424fe98563e33590600090a1600080600080610c2b61094d565b93509350935093507fa908a97263ad0cd1c787eabeafe72d238ffd33cb882be25cc57aa311f1dde07460025485858585604051610c6c959493929190612017565b60405180910390a150505050565b60046020819052600091825260409091208054600182015460028301546003840154948401546005850180546001600160a01b039095169693959294919291610cc290611e29565b80601f0160208091040260200160405190810160405280929190818152602001828054610cee90611e29565b8015610d3b5780601f10610d1057610100808354040283529160200191610d3b565b820191906000526020600020905b815481529060010190602001808311610d1e57829003601f168201915b5050505050905086565b610d6a6040805160608101909152806000815260200160008152600060209091015290565b60408051606081019091528060028152602001600081526000602090910152919050565b610db36040805160608101909152806000815260200160008152600060209091015290565b815160029081811115610dc857610dc861206a565b60ff161115610ddf57610dd9610d45565b92915050565b602082015160089081811115610df757610df761206a565b60ff161115610e0857610dd9610d45565b5090565b610e1461176c565b60005b8351811015610f5d57600060058281548110610e3557610e35611d50565b60009182526020808320909101546001600160a01b031680835260049091526040822087519193509190879085908110610e7157610e71611d50565b602002602001015190506000826003015411610e8f57505050610f4b565b600081516002811115610ea457610ea461206a565b03610f2557600080610ec38460010154856002015485602001516117cc565b91509150610ed18282611935565b8015610ee55750610ee382828761194f565b155b15610f1e576001808501839055600285018290558851899088908110610f0d57610f0d611d50565b911515602092830291909101909101525b5050610f47565b600281516002811115610f3a57610f3a61206a565b03610f4757603260048301555b5050505b80610f5581611d7c565b915050610e17565b5060005b83518110156112ba57600060058281548110610f7f57610f7f611d50565b60009182526020808320909101546001600160a01b031680835260049091526040822087519193509190879085908110610fbb57610fbb611d50565b602002602001015190506000826003015411610fd9575050506112a8565b600181516002811115610fee57610fee61206a565b036112a45760008061100d8460010154856002015485602001516117cc565b9150915060008061101e8484611a07565b90925090506001600160a01b0382161561129f576001600160a01b03821660009081526004602052604081206003880154909190605010611060576032611063565b605a5b6002546040516bffffffffffffffffffffffff1960608d811b8216602084015288901b166034820152604881019190915260ff9190911691506000906064906110f8906068016040516020818303038152906040528051906020012060001c60408051426020808301919091524482840152606080830194909452825180830390940184526080909101909152815191012090565b6111029190612096565b905081811015611238576004830154601490156111855760648460040154606461112c91906120aa565b61113690836120bd565b61114091906120d4565b90507fcd57432f5f8f925c035af755ab50d003678ffa68232032564a5c8b0002ff8d6b8b8760018060405161117894939291906120e8565b60405180910390a16111c5565b7fcd57432f5f8f925c035af755ab50d003678ffa68232032564a5c8b0002ff8d6b8b87600160006040516111bc94939291906120e8565b60405180910390a15b8084600301541161121857600060038501556040516001600160a01b03871681527f314aad641dd21a90567a24ff4d847656e9641088af0f4f643b856125d669e6999060200160405180910390a1611232565b8084600301600082825461122c91906120aa565b90915550505b50611277565b7fcd57432f5f8f925c035af755ab50d003678ffa68232032564a5c8b0002ff8d6b8a8660008060405161126e94939291906120e8565b60405180910390a15b60018c858151811061128b5761128b611d50565b911515602092830291909101909101525050505b505050505b5050505b806112b281611d7c565b915050610f61565b50505050565b60005b6005548110156113dd576000600582815481106112e2576112e2611d50565b60009182526020808320909101546001600160a01b03168083526004909152604090912060038101549192509061131a5750506113cb565b84838151811061132c5761132c611d50565b6020026020010151158015611358575083838151811061134e5761134e611d50565b6020026020010151155b156113c85760058160030160008282546113729190612113565b90915550506040516001600160a01b03831681527f7989af8341fb43b7b53563aabc822d561fe6e9f2b45f830238a4702bc21cb7149060200160405180910390a16064816003015411156113c857606460038201555b50505b806113d581611d7c565b9150506112c3565b505050565b600080805b600554811015611469576000600460006005848154811061140a5761140a611d50565b60009182526020808320909101546001600160a01b031683528201929092526040019020600301541115611457578161144281611d7c565b92505060018211156114575760009250505090565b8061146181611d7c565b9150506113e7565b50600191505090565b6000805b6005548110156114de5760006005828154811061149557611495611d50565b60009182526020808320909101546001600160a01b03168083526004909152604090912060030154909150156114cb5792915050565b50806114d681611d7c565b915050611476565b506000905090565b60008080805b600554811015611579576000600460006005848154811061150f5761150f611d50565b60009182526020808320909101546001600160a01b03168352820192909252604001902060038101549091501580159061154c5750828160030154115b1561156657600381015481546001600160a01b0316945092505b508061157181611d7c565b9150506114ec565b509092915050565b6001805460ff19169055600060028190555b6000546115a090806120bd565b8110156115cf576000818152600660205260409020805460ff19169055806115c781611d7c565b915050611593565b5060005b600554811015611769576000600582815481106115f2576115f2611d50565b60009182526020808320909101546001600160a01b031680835260049091526040822090925090805b60005461162890806120bd565b600254604080514260208201524491810191909152606087811b6bffffffffffffffffffffffff19169082015260748101919091526094810184905260b4016040516020818303038152906040528051906020012060001c61168a9190612096565b90508161169681611d7c565b60008381526006602052604090205490935060ff16905061161b576000818152600660205260408120805460ff19166001179055546116d59082612096565b60018401556000546116e790826120d4565b600284015560646003840155600060048085018290556040805163d826f88f60e01b815290516001600160a01b0388169363d826f88f938381019391929182900301818387803b15801561173a57600080fd5b505af115801561174e573d6000803e3d6000fd5b5050505050505050808061176190611d7c565b9150506115d3565b50565b60005b600554811015611769576000600460006005848154811061179257611792611d50565b60009182526020808320909101546001600160a01b03168352820192909252604001902060040155806117c481611d7c565b91505061176f565b600080848460018560088111156117e5576117e561206a565b036117fc576117f5600182612126565b9050611929565b60028560088111156118105761181061206a565b0361182d57611820600183612126565b91506117f5600182612126565b60038560088111156118415761184161206a565b0361185857611851600183612126565b9150611929565b600485600881111561186c5761186c61206a565b036118895761187c600183612126565b91506117f560018261214e565b600585600881111561189d5761189d61206a565b036118ad576117f560018261214e565b60068560088111156118c1576118c161206a565b036118d15761187c60018361214e565b60078560088111156118e5576118e561206a565b036118f55761185160018361214e565b60088560088111156119095761190961206a565b036119295761191960018361214e565b9150611926600182612126565b90505b90969095509350505050565b6000805483108015611948575060005482105b9392505050565b6000805b6005548110156119fc5760006005828154811061197257611972611d50565b6000918252602090912001546001600160a01b0390811691508416810361199957506119ea565b6001600160a01b03811660009081526004602052604090206003810154158015906119c75750868160010154145b80156119d65750858160020154145b156119e75760019350505050611948565b50505b806119f481611d7c565b915050611953565b506000949350505050565b60008060005b600554811015611aa75760006004600060058481548110611a3057611a30611d50565b60009182526020808320909101546001600160a01b031683528201929092526040019020600381015490915015801590611a6d5750858160010154145b8015611a7c5750848160020154145b15611a9457546001600160a01b031692509050611ab0565b5080611a9f81611d7c565b915050611a0d565b50600080915091505b9250929050565b600060208284031215611ac957600080fd5b5035919050565b634e487b7160e01b600052604160045260246000fd5b604051601f8201601f1916810167ffffffffffffffff81118282101715611b0f57611b0f611ad0565b604052919050565b6001600160a01b038116811461176957600080fd5b60006020808385031215611b3f57600080fd5b823567ffffffffffffffff80821115611b5757600080fd5b818501915085601f830112611b6b57600080fd5b813581811115611b7d57611b7d611ad0565b8060051b9150611b8e848301611ae6565b8181529183018401918481019088841115611ba857600080fd5b938501935b83851015611bd25784359250611bc283611b17565b8282529385019390850190611bad565b98975050505050505050565b600060208284031215611bf057600080fd5b813561194881611b17565b600081518084526020808501945080840160005b83811015611c345781516001600160a01b031687529582019590820190600101611c0f565b509495945050505050565b600081518084526020808501945080840160005b83811015611c3457815187529582019590820190600101611c53565b608081526000611c826080830187611bfb565b8281036020840152611c948187611c3f565b90508281036040840152611ca88186611c3f565b90508281036060840152611cbc8185611c3f565b979650505050505050565b60005b83811015611ce2578181015183820152602001611cca565b50506000910152565b60008151808452611d03816020860160208601611cc7565b601f01601f19169290920160200192915050565b60018060a01b038716815285602082015284604082015283606082015282608082015260c060a08201526000611bd260c0830184611ceb565b634e487b7160e01b600052603260045260246000fd5b634e487b7160e01b600052601160045260246000fd5b600060018201611d8e57611d8e611d66565b5060010190565b600060208284031215611da757600080fd5b815167ffffffffffffffff80821115611dbf57600080fd5b818401915084601f830112611dd357600080fd5b815181811115611de557611de5611ad0565b611df8601f8201601f1916602001611ae6565b9150808252856020828501011115611e0f57600080fd5b611e20816020840160208601611cc7565b50949350505050565b600181811c90821680611e3d57607f821691505b602082108103611e5d57634e487b7160e01b600052602260045260246000fd5b50919050565b601f8211156113dd57600081815260208120601f850160051c81016020861015611e8a5750805b601f850160051c820191505b81811015611ea957828155600101611e96565b505050505050565b815167ffffffffffffffff811115611ecb57611ecb611ad0565b611edf81611ed98454611e29565b84611e63565b602080601f831160018114611f145760008415611efc5750858301515b600019600386901b1c1916600185901b178555611ea9565b600085815260208120601f198616915b82811015611f4357888601518255948401946001909101908401611f24565b5085821015611f615787850151600019600388901b60f8161c191681555b5050505050600190811b01905550565b6001600160a01b0383168152604060208201819052600090611f9590830184611ceb565b949350505050565b600060608284031215611faf57600080fd5b6040516060810181811067ffffffffffffffff82111715611fd257611fd2611ad0565b604052825160038110611fe457600080fd5b8152602083015160098110611ff857600080fd5b6020820152604083015161200b81611b17565b60408201529392505050565b85815260a06020820152600061203060a0830187611bfb565b82810360408401526120428187611c3f565b905082810360608401526120568186611c3f565b90508281036080840152611bd28185611c3f565b634e487b7160e01b600052602160045260246000fd5b634e487b7160e01b600052601260045260246000fd5b6000826120a5576120a5612080565b500690565b81810381811115610dd957610dd9611d66565b8082028115828204841417610dd957610dd9611d66565b6000826120e3576120e3612080565b500490565b6001600160a01b03948516815292909316602083015215156040820152901515606082015260800190565b80820180821115610dd957610dd9611d66565b808201828112600083128015821682158216171561214657612146611d66565b505092915050565b818103600083128015838313168383128216171561216e5761216e611d66565b509291505056fea26469706673582212206214d05a0d2f61d4cc6386e40440c232f11b1a47f024a1dcdc450d08e2ca35da64736f6c63430008150033",
  "linkReferences": {},
  "deployedLinkReferences": {}
}