{
  "_format": "hh-sol-artifact-1",
  "contractName": "Arena",
  "sourceName": "contracts/Arena.sol",
  "abi": [
    {
      "anonymous": false,
      "inputs": [
        {
          "indexed": false,
          "internalType": "address",
          "name": "winner",
          "type": "address"
        }
      ],
      "name": "GameEnded",
      "type": "event"
    },
    {
      "anonymous": false,
      "inputs": [],
      "name": "GameStarted",
      "type": "event"
    },
    {
      "anonymous": false,
      "inputs": [
        {
          "indexed": false,
          "internalType": "address",
          "name": "playerAddress",
          "type": "address"
        },
        {
          "indexed": false,
          "internalType": "string",
          "name": "name",
          "type": "string"
        }
      ],
      "name": "PlayerRegistered",
      "type": "event"
    },
    {
      "anonymous": false,
      "inputs": [
        {
          "indexed": false,
          "internalType": "uint256",
          "name": "turnNumber",
          "type": "uint256"
        },
        {
          "indexed": false,
          "internalType": "address[]",
          "name": "playerAddrs",
          "type": "address[]"
        },
        {
          "indexed": false,
          "internalType": "uint256[]",
          "name": "xs",
          "type": "uint256[]"
        },
        {
          "indexed": false,
          "internalType": "uint256[]",
          "name": "ys",
          "type": "uint256[]"
        },
        {
          "indexed": false,
          "internalType": "uint256[]",
          "name": "healths",
          "type": "uint256[]"
        }
      ],
      "name": "TurnPlayed",
      "type": "event"
    },
    {
      "inputs": [],
      "name": "gameStarted",
      "outputs": [
        {
          "internalType": "bool",
          "name": "",
          "type": "bool"
        }
      ],
      "stateMutability": "view",
      "type": "function"
    },
    {
      "inputs": [],
      "name": "getGameState",
      "outputs": [
        {
          "internalType": "address[]",
          "name": "playerAddrs",
          "type": "address[]"
        },
        {
          "internalType": "uint256[]",
          "name": "xs",
          "type": "uint256[]"
        },
        {
          "internalType": "uint256[]",
          "name": "ys",
          "type": "uint256[]"
        },
        {
          "internalType": "uint256[]",
          "name": "healths",
          "type": "uint256[]"
        }
      ],
      "stateMutability": "view",
      "type": "function"
    },
    {
      "inputs": [],
      "name": "getNumPlayers",
      "outputs": [
        {
          "internalType": "uint256",
          "name": "",
          "type": "uint256"
        }
      ],
      "stateMutability": "view",
      "type": "function"
    },
    {
      "inputs": [],
      "name": "gridSize",
      "outputs": [
        {
          "internalType": "uint256",
          "name": "",
          "type": "uint256"
        }
      ],
      "stateMutability": "view",
      "type": "function"
    },
    {
      "inputs": [],
      "name": "maxTurns",
      "outputs": [
        {
          "internalType": "uint256",
          "name": "",
          "type": "uint256"
        }
      ],
      "stateMutability": "view",
      "type": "function"
    },
    {
      "inputs": [],
      "name": "playTurn",
      "outputs": [],
      "stateMutability": "nonpayable",
      "type": "function"
    },
    {
      "inputs": [
        {
          "internalType": "uint256",
          "name": "",
          "type": "uint256"
        }
      ],
      "name": "playerAddresses",
      "outputs": [
        {
          "internalType": "address",
          "name": "",
          "type": "address"
        }
      ],
      "stateMutability": "view",
      "type": "function"
    },
    {
      "inputs": [
        {
          "internalType": "address",
          "name": "",
          "type": "address"
        }
      ],
      "name": "players",
      "outputs": [
        {
          "internalType": "address",
          "name": "playerAddress",
          "type": "address"
        },
        {
          "internalType": "uint256",
          "name": "x",
          "type": "uint256"
        },
        {
          "internalType": "uint256",
          "name": "y",
          "type": "uint256"
        },
        {
          "internalType": "uint256",
          "name": "health",
          "type": "uint256"
        },
        {
          "internalType": "uint256",
          "name": "defenseBuff",
          "type": "uint256"
        },
        {
          "internalType": "string",
          "name": "name",
          "type": "string"
        }
      ],
      "stateMutability": "view",
      "type": "function"
    },
    {
      "inputs": [
        {
          "internalType": "address[]",
          "name": "playerContracts",
          "type": "address[]"
        }
      ],
      "name": "registerMultiplePlayers",
      "outputs": [],
      "stateMutability": "nonpayable",
      "type": "function"
    },
    {
      "inputs": [
        {
          "internalType": "address",
          "name": "playerContract",
          "type": "address"
        }
      ],
      "name": "registerPlayer",
      "outputs": [],
      "stateMutability": "nonpayable",
      "type": "function"
    },
    {
      "inputs": [],
      "name": "startGame",
      "outputs": [],
      "stateMutability": "nonpayable",
      "type": "function"
    },
    {
      "inputs": [],
      "name": "totalTurns",
      "outputs": [
        {
          "internalType": "uint256",
          "name": "",
          "type": "uint256"
        }
      ],
      "stateMutability": "view",
      "type": "function"
    }
  ],
  "bytecode": "0x6080604052600a60009081556001805460ff19169055600255606460035534801561002957600080fd5b50611f56806100396000396000f3fe608060405234801561001057600080fd5b50600436106100b45760003560e01c806379f9607d1161007157806379f9607d1461014d578063a764366614610156578063b7d0628b1461015e578063d65ab5f214610176578063e142feac1461017e578063e2eb41ff1461018757600080fd5b806315c6aee2146100b957806330dad815146100e957806351f470041461010057806355c9e926146101155780635e123ce41461011d5780636b5cc6d91461013a575b600080fd5b6100cc6100c736600461188d565b6101ac565b6040516001600160a01b0390911681526020015b60405180910390f35b6100f260035481565b6040519081526020016100e0565b61011361010e366004611902565b6101d6565b005b6005546100f2565b60015461012a9060ff1681565b60405190151581526020016100e0565b6101136101483660046119b4565b61021a565b6100f260005481565b6101136104bc565b6101666108dd565b6040516100e09493929190611a45565b610113610b01565b6100f260025481565b61019a6101953660046119b4565b610c0a565b6040516100e096959493929190611aed565b600581815481106101bc57600080fd5b6000918252602090912001546001600160a01b0316905081565b60005b8151811015610216576102048282815181106101f7576101f7611b26565b602002602001015161021a565b8061020e81611b52565b9150506101d9565b5050565b60015460ff16156102725760405162461bcd60e51b815260206004820152601860248201527f47616d652068617320616c72656164792073746172746564000000000000000060448201526064015b60405180910390fd5b6001600160a01b0381166102c85760405162461bcd60e51b815260206004820152601f60248201527f496e76616c696420706c6179657220636f6e74726163742061646472657373006044820152606401610269565b6001600160a01b0381811660009081526004602052604090205416156103305760405162461bcd60e51b815260206004820152601960248201527f506c6179657220616c72656164792072656769737465726564000000000000006044820152606401610269565b6000816001600160a01b03166306fdde036040518163ffffffff1660e01b8152600401600060405180830381865afa158015610370573d6000803e3d6000fd5b505050506040513d6000823e601f3d908101601f191682016040526103989190810190611b6b565b6040805160c0810182526001600160a01b03858116808352600060208085018281528587018381526064606088019081526080880185815260a089018b815296865260049485905298909420875181546001600160a01b03191697169690961786559051600186015551600285015590516003840155935193820193909355915192935091829190600582019061042f9082611c87565b5050600580546001810182556000919091527f036b6384b5eca791c62761152d0c79bb0604c104a5fb6f4eb0703f3154bb3db00180546001600160a01b0319166001600160a01b038616179055506040517fe04d23b73ae3d3b27074da9719b5a4cd521395aaf86bfe7e374933ecb567731a906104af9085908590611d47565b60405180910390a1505050565b60015460ff1661050e5760405162461bcd60e51b815260206004820152601860248201527f47616d6520686173206e6f7420737461727465642079657400000000000000006044820152606401610269565b6002805490600061051e83611b52565b909155505060055460009067ffffffffffffffff811115610541576105416118a6565b60405190808252806020026020018201604052801561059757816020015b6105846040805160608101909152806000815260200160008152600060209091015290565b81526020019060019003908161055f5790505b5060055490915062030d409060009067ffffffffffffffff8111156105be576105be6118a6565b6040519080825280602002602001820160405280156105e7578160200160208202803683370190505b5060055490915060009067ffffffffffffffff811115610609576106096118a6565b604051908082528060200260200182016040528015610632578160200160208202803683370190505b5090506000806000806106436108dd565b935093509350935060005b6005548110156107a25760006005828154811061066d5761066d611b26565b60009182526020808320909101546001600160a01b0316808352600490915260409091206003810154919250901561076757604051636f8f3ef360e11b81526001600160a01b0383169063df1e7de6908c906106d3908b908b908b908b90600401611a45565b6060604051808303818786fa9350505050801561070d575060408051601f3d908101601f1916820190925261070a91810190611d73565b60015b61073b57610719610cd5565b8b848151811061072b5761072b611b26565b602002602001018190525061078d565b61074481610d1e565b8c858151811061075657610756611b26565b60200260200101819052505061078d565b61076f610cd5565b8b848151811061078157610781611b26565b60200260200101819052505b5050808061079a90611b52565b91505061064e565b506107ae888787610d9c565b6107b8868661114f565b6107c06108dd565b60025460405194985092965090945092507fa908a97263ad0cd1c787eabeafe72d238ffd33cb882be25cc57aa311f1dde0749161080591908790879087908790611ded565b60405180910390a1610815611235565b15610873576001805460ff19169055600061082e6112c5565b6040516001600160a01b03821681529091507f51b77d00d3c0b7e376e9ee146711ceb2c08e58a5dbe38055a618e52109f720c19060200160405180910390a1506108d3565b600354600254106108d3576001805460ff191690556000610892611339565b6040516001600160a01b03821681529091507f51b77d00d3c0b7e376e9ee146711ceb2c08e58a5dbe38055a618e52109f720c19060200160405180910390a1505b5050505050505050565b6005546060908190819081908067ffffffffffffffff811115610902576109026118a6565b60405190808252806020026020018201604052801561092b578160200160208202803683370190505b5094508067ffffffffffffffff811115610947576109476118a6565b604051908082528060200260200182016040528015610970578160200160208202803683370190505b5093508067ffffffffffffffff81111561098c5761098c6118a6565b6040519080825280602002602001820160405280156109b5578160200160208202803683370190505b5092508067ffffffffffffffff8111156109d1576109d16118a6565b6040519080825280602002602001820160405280156109fa578160200160208202803683370190505b50915060005b81811015610af957600060058281548110610a1d57610a1d611b26565b60009182526020808320909101546001600160a01b0316808352600490915260409091208851919250908290899085908110610a5b57610a5b611b26565b60200260200101906001600160a01b031690816001600160a01b0316815250508060010154878481518110610a9257610a92611b26565b6020026020010181815250508060020154868481518110610ab557610ab5611b26565b6020026020010181815250508060030154858481518110610ad857610ad8611b26565b60200260200101818152505050508080610af190611b52565b915050610a00565b505090919293565b60055460021115610b705760405162461bcd60e51b815260206004820152603360248201527f4174206c656173742074776f20706c61796572732061726520726571756972656044820152726420746f207374617274207468652067616d6560681b6064820152608401610269565b610b786113d4565b6001805460ff1916811790556040517f762f260439bb4be3ef6e4dc2786e2e7bd187d3d80b79057d7a424fe98563e33590600090a1600080600080610bbb6108dd565b93509350935093507fa908a97263ad0cd1c787eabeafe72d238ffd33cb882be25cc57aa311f1dde07460025485858585604051610bfc959493929190611ded565b60405180910390a150505050565b60046020819052600091825260409091208054600182015460028301546003840154948401546005850180546001600160a01b039095169693959294919291610c5290611bff565b80601f0160208091040260200160405190810160405280929190818152602001828054610c7e90611bff565b8015610ccb5780601f10610ca057610100808354040283529160200191610ccb565b820191906000526020600020905b815481529060010190602001808311610cae57829003601f168201915b5050505050905086565b610cfa6040805160608101909152806000815260200160008152600060209091015290565b60408051606081019091528060028152602001600081526000602090910152919050565b610d436040805160608101909152806000815260200160008152600060209091015290565b815160029081811115610d5857610d58611e40565b60ff161115610d6f57610d69610cd5565b92915050565b602082015160089081811115610d8757610d87611e40565b60ff161115610d9857610d69610cd5565b5090565b610da4611542565b60005b8351811015610eed57600060058281548110610dc557610dc5611b26565b60009182526020808320909101546001600160a01b031680835260049091526040822087519193509190879085908110610e0157610e01611b26565b602002602001015190506000826003015411610e1f57505050610edb565b600081516002811115610e3457610e34611e40565b03610eb557600080610e538460010154856002015485602001516115a2565b91509150610e61828261170b565b8015610e755750610e73828287611725565b155b15610eae576001808501839055600285018290558851899088908110610e9d57610e9d611b26565b911515602092830291909101909101525b5050610ed7565b600281516002811115610eca57610eca611e40565b03610ed757603260048301555b5050505b80610ee581611b52565b915050610da7565b5060005b835181101561114957600060058281548110610f0f57610f0f611b26565b60009182526020808320909101546001600160a01b031680835260049091526040822087519193509190879085908110610f4b57610f4b611b26565b602002602001015190506000826003015411610f6957505050611137565b600181516002811115610f7e57610f7e611e40565b0361113357600080610f9d8460010154856002015485602001516115a2565b91509150600080610fae84846117dd565b90925090506001600160a01b0382161561112e576001600160a01b03821660009081526004602052604081206003880154909190605010610ff0576032610ff3565b605a5b6002546040516bffffffffffffffffffffffff1960608d811b8216602084015288901b166034820152604881019190915260ff919091169150600090606490611088906068016040516020818303038152906040528051906020012060001c60408051426020808301919091524482840152606080830194909452825180830390940184526080909101909152815191012090565b6110929190611e6c565b905081811015611106576004830154601490156110d3576064846004015460646110bc9190611e80565b6110c69083611e93565b6110d09190611eaa565b90505b808460030154116110ea5760006003850155611104565b808460030160008282546110fe9190611e80565b90915550505b505b60018c858151811061111a5761111a611b26565b911515602092830291909101909101525050505b505050505b5050505b8061114181611b52565b915050610ef1565b50505050565b60005b6005548110156112305760006005828154811061117157611171611b26565b60009182526020808320909101546001600160a01b0316808352600490915260409091206003810154919250906111a957505061121e565b8483815181106111bb576111bb611b26565b60200260200101511580156111e757508383815181106111dd576111dd611b26565b6020026020010151155b1561121b5760058160030160008282546112019190611ebe565b909155505060038101546064101561121b57606460038201555b50505b8061122881611b52565b915050611152565b505050565b600080805b6005548110156112bc576000600460006005848154811061125d5761125d611b26565b60009182526020808320909101546001600160a01b0316835282019290925260400190206003015411156112aa578161129581611b52565b92505060018211156112aa5760009250505090565b806112b481611b52565b91505061123a565b50600191505090565b6000805b600554811015611331576000600582815481106112e8576112e8611b26565b60009182526020808320909101546001600160a01b031680835260049091526040909120600301549091501561131e5792915050565b508061132981611b52565b9150506112c9565b506000905090565b60008080805b6005548110156113cc576000600460006005848154811061136257611362611b26565b60009182526020808320909101546001600160a01b03168352820192909252604001902060038101549091501580159061139f5750828160030154115b156113b957600381015481546001600160a01b0316945092505b50806113c481611b52565b91505061133f565b509092915050565b6001805460ff19169055600060028190555b60055481101561153f5760006005828154811061140557611405611b26565b60009182526020808320909101546001600160a01b0316808352600490915260408220825491935091906114399080611e93565b60025460405161147991429144918891602001938452602084019290925260601b6bffffffffffffffffffffffff19166040830152605482015260740190565b6040516020818303038152906040528051906020012060001c61149c9190611e6c565b9050600054816114ac9190611e6c565b60018301556000546114be9082611eaa565b600283015560646003830155600060048084018290556040805163d826f88f60e01b815290516001600160a01b0387169363d826f88f938381019391929182900301818387803b15801561151157600080fd5b505af1158015611525573d6000803e3d6000fd5b50505050505050808061153790611b52565b9150506113e6565b50565b60005b60055481101561153f576000600460006005848154811061156857611568611b26565b60009182526020808320909101546001600160a01b031683528201929092526040019020600401558061159a81611b52565b915050611545565b600080848460018560088111156115bb576115bb611e40565b036115d2576115cb600182611ed1565b90506116ff565b60028560088111156115e6576115e6611e40565b03611603576115f6600183611ed1565b91506115cb600182611ed1565b600385600881111561161757611617611e40565b0361162e57611627600183611ed1565b91506116ff565b600485600881111561164257611642611e40565b0361165f57611652600183611ed1565b91506115cb600182611ef9565b600585600881111561167357611673611e40565b03611683576115cb600182611ef9565b600685600881111561169757611697611e40565b036116a757611652600183611ef9565b60078560088111156116bb576116bb611e40565b036116cb57611627600183611ef9565b60088560088111156116df576116df611e40565b036116ff576116ef600183611ef9565b91506116fc600182611ed1565b90505b90969095509350505050565b600080548310801561171e575060005482105b9392505050565b6000805b6005548110156117d25760006005828154811061174857611748611b26565b6000918252602090912001546001600160a01b0390811691508416810361176f57506117c0565b6001600160a01b038116600090815260046020526040902060038101541580159061179d5750868160010154145b80156117ac5750858160020154145b156117bd576001935050505061171e565b50505b806117ca81611b52565b915050611729565b506000949350505050565b60008060005b60055481101561187d576000600460006005848154811061180657611806611b26565b60009182526020808320909101546001600160a01b0316835282019290925260400190206003810154909150158015906118435750858160010154145b80156118525750848160020154145b1561186a57546001600160a01b031692509050611886565b508061187581611b52565b9150506117e3565b50600080915091505b9250929050565b60006020828403121561189f57600080fd5b5035919050565b634e487b7160e01b600052604160045260246000fd5b604051601f8201601f1916810167ffffffffffffffff811182821017156118e5576118e56118a6565b604052919050565b6001600160a01b038116811461153f57600080fd5b6000602080838503121561191557600080fd5b823567ffffffffffffffff8082111561192d57600080fd5b818501915085601f83011261194157600080fd5b813581811115611953576119536118a6565b8060051b91506119648483016118bc565b818152918301840191848101908884111561197e57600080fd5b938501935b838510156119a85784359250611998836118ed565b8282529385019390850190611983565b98975050505050505050565b6000602082840312156119c657600080fd5b813561171e816118ed565b600081518084526020808501945080840160005b83811015611a0a5781516001600160a01b0316875295820195908201906001016119e5565b509495945050505050565b600081518084526020808501945080840160005b83811015611a0a57815187529582019590820190600101611a29565b608081526000611a5860808301876119d1565b8281036020840152611a6a8187611a15565b90508281036040840152611a7e8186611a15565b90508281036060840152611a928185611a15565b979650505050505050565b60005b83811015611ab8578181015183820152602001611aa0565b50506000910152565b60008151808452611ad9816020860160208601611a9d565b601f01601f19169290920160200192915050565b60018060a01b038716815285602082015284604082015283606082015282608082015260c060a082015260006119a860c0830184611ac1565b634e487b7160e01b600052603260045260246000fd5b634e487b7160e01b600052601160045260246000fd5b600060018201611b6457611b64611b3c565b5060010190565b600060208284031215611b7d57600080fd5b815167ffffffffffffffff80821115611b9557600080fd5b818401915084601f830112611ba957600080fd5b815181811115611bbb57611bbb6118a6565b611bce601f8201601f19166020016118bc565b9150808252856020828501011115611be557600080fd5b611bf6816020840160208601611a9d565b50949350505050565b600181811c90821680611c1357607f821691505b602082108103611c3357634e487b7160e01b600052602260045260246000fd5b50919050565b601f82111561123057600081815260208120601f850160051c81016020861015611c605750805b601f850160051c820191505b81811015611c7f57828155600101611c6c565b505050505050565b815167ffffffffffffffff811115611ca157611ca16118a6565b611cb581611caf8454611bff565b84611c39565b602080601f831160018114611cea5760008415611cd25750858301515b600019600386901b1c1916600185901b178555611c7f565b600085815260208120601f198616915b82811015611d1957888601518255948401946001909101908401611cfa565b5085821015611d375787850151600019600388901b60f8161c191681555b5050505050600190811b01905550565b6001600160a01b0383168152604060208201819052600090611d6b90830184611ac1565b949350505050565b600060608284031215611d8557600080fd5b6040516060810181811067ffffffffffffffff82111715611da857611da86118a6565b604052825160038110611dba57600080fd5b8152602083015160098110611dce57600080fd5b60208201526040830151611de1816118ed565b60408201529392505050565b85815260a060208201526000611e0660a08301876119d1565b8281036040840152611e188187611a15565b90508281036060840152611e2c8186611a15565b905082810360808401526119a88185611a15565b634e487b7160e01b600052602160045260246000fd5b634e487b7160e01b600052601260045260246000fd5b600082611e7b57611e7b611e56565b500690565b81810381811115610d6957610d69611b3c565b8082028115828204841417610d6957610d69611b3c565b600082611eb957611eb9611e56565b500490565b80820180821115610d6957610d69611b3c565b8082018281126000831280158216821582161715611ef157611ef1611b3c565b505092915050565b8181036000831280158383131683831282161715611f1957611f19611b3c565b509291505056fea264697066735822122035722f5bb58458c14c928a5dfdb31d4447646d48a33513058461f3f2d87a7b3464736f6c63430008150033",
  "linkReferences": {},
  "deployedLinkReferences": {}
}