{
  "_format": "hh-sol-artifact-1",
  "contractName": "Arena",
  "sourceName": "contracts/Arena.sol",
  "abi": [
    {
      "anonymous": false,
      "inputs": [
        {
          "indexed": false,
          "internalType": "address",
          "name": "playerAddress",
          "type": "address"
        }
      ],
      "name": "ActionFailed",
      "type": "event"
    },
    {
      "anonymous": false,
      "inputs": [
        {
          "indexed": false,
          "internalType": "address",
          "name": "playerAddress",
          "type": "address"
        }
      ],
      "name": "ActionSuccess",
      "type": "event"
    },
    {
      "anonymous": false,
      "inputs": [
        {
          "indexed": false,
          "internalType": "address",
          "name": "attackerAddress",
          "type": "address"
        },
        {
          "indexed": false,
          "internalType": "address",
          "name": "targetAddress",
          "type": "address"
        },
        {
          "indexed": false,
          "internalType": "bool",
          "name": "success",
          "type": "bool"
        },
        {
          "indexed": false,
          "internalType": "bool",
          "name": "defended",
          "type": "bool"
        }
      ],
      "name": "AttackHappened",
      "type": "event"
    },
    {
      "anonymous": false,
      "inputs": [
        {
          "indexed": false,
          "internalType": "address",
          "name": "playerAddress",
          "type": "address"
        }
      ],
      "name": "DiedHappened",
      "type": "event"
    },
    {
      "anonymous": false,
      "inputs": [
        {
          "indexed": false,
          "internalType": "address",
          "name": "winner",
          "type": "address"
        }
      ],
      "name": "GameEnded",
      "type": "event"
    },
    {
      "anonymous": false,
      "inputs": [],
      "name": "GameStarted",
      "type": "event"
    },
    {
      "anonymous": false,
      "inputs": [
        {
          "indexed": false,
          "internalType": "address",
          "name": "playerAddress",
          "type": "address"
        },
        {
          "indexed": false,
          "internalType": "string",
          "name": "name",
          "type": "string"
        }
      ],
      "name": "PlayerRegistered",
      "type": "event"
    },
    {
      "anonymous": false,
      "inputs": [
        {
          "indexed": false,
          "internalType": "address",
          "name": "playerAddress",
          "type": "address"
        }
      ],
      "name": "RestHappened",
      "type": "event"
    },
    {
      "anonymous": false,
      "inputs": [
        {
          "indexed": false,
          "internalType": "uint256",
          "name": "turnNumber",
          "type": "uint256"
        },
        {
          "indexed": false,
          "internalType": "address[]",
          "name": "playerAddrs",
          "type": "address[]"
        },
        {
          "indexed": false,
          "internalType": "uint256[]",
          "name": "xs",
          "type": "uint256[]"
        },
        {
          "indexed": false,
          "internalType": "uint256[]",
          "name": "ys",
          "type": "uint256[]"
        },
        {
          "indexed": false,
          "internalType": "uint256[]",
          "name": "healths",
          "type": "uint256[]"
        }
      ],
      "name": "TurnPlayed",
      "type": "event"
    },
    {
      "inputs": [],
      "name": "clearPlayers",
      "outputs": [],
      "stateMutability": "nonpayable",
      "type": "function"
    },
    {
      "inputs": [],
      "name": "gameStarted",
      "outputs": [
        {
          "internalType": "bool",
          "name": "",
          "type": "bool"
        }
      ],
      "stateMutability": "view",
      "type": "function"
    },
    {
      "inputs": [],
      "name": "getGameState",
      "outputs": [
        {
          "internalType": "address[]",
          "name": "playerAddrs",
          "type": "address[]"
        },
        {
          "internalType": "uint256[]",
          "name": "xs",
          "type": "uint256[]"
        },
        {
          "internalType": "uint256[]",
          "name": "ys",
          "type": "uint256[]"
        },
        {
          "internalType": "uint256[]",
          "name": "healths",
          "type": "uint256[]"
        }
      ],
      "stateMutability": "view",
      "type": "function"
    },
    {
      "inputs": [],
      "name": "getNumPlayers",
      "outputs": [
        {
          "internalType": "uint256",
          "name": "",
          "type": "uint256"
        }
      ],
      "stateMutability": "view",
      "type": "function"
    },
    {
      "inputs": [],
      "name": "gridSize",
      "outputs": [
        {
          "internalType": "uint256",
          "name": "",
          "type": "uint256"
        }
      ],
      "stateMutability": "view",
      "type": "function"
    },
    {
      "inputs": [],
      "name": "maxTurns",
      "outputs": [
        {
          "internalType": "uint256",
          "name": "",
          "type": "uint256"
        }
      ],
      "stateMutability": "view",
      "type": "function"
    },
    {
      "inputs": [],
      "name": "playTurn",
      "outputs": [],
      "stateMutability": "nonpayable",
      "type": "function"
    },
    {
      "inputs": [
        {
          "internalType": "uint256",
          "name": "",
          "type": "uint256"
        }
      ],
      "name": "playerAddresses",
      "outputs": [
        {
          "internalType": "address",
          "name": "",
          "type": "address"
        }
      ],
      "stateMutability": "view",
      "type": "function"
    },
    {
      "inputs": [
        {
          "internalType": "address",
          "name": "",
          "type": "address"
        }
      ],
      "name": "players",
      "outputs": [
        {
          "internalType": "address",
          "name": "playerAddress",
          "type": "address"
        },
        {
          "internalType": "uint256",
          "name": "x",
          "type": "uint256"
        },
        {
          "internalType": "uint256",
          "name": "y",
          "type": "uint256"
        },
        {
          "internalType": "uint256",
          "name": "health",
          "type": "uint256"
        },
        {
          "internalType": "uint256",
          "name": "defenseBuff",
          "type": "uint256"
        },
        {
          "internalType": "string",
          "name": "name",
          "type": "string"
        }
      ],
      "stateMutability": "view",
      "type": "function"
    },
    {
      "inputs": [
        {
          "internalType": "address[]",
          "name": "playerContracts",
          "type": "address[]"
        }
      ],
      "name": "registerMultiplePlayers",
      "outputs": [],
      "stateMutability": "nonpayable",
      "type": "function"
    },
    {
      "inputs": [
        {
          "internalType": "address",
          "name": "playerContract",
          "type": "address"
        }
      ],
      "name": "registerPlayer",
      "outputs": [],
      "stateMutability": "nonpayable",
      "type": "function"
    },
    {
      "inputs": [],
      "name": "startGame",
      "outputs": [],
      "stateMutability": "nonpayable",
      "type": "function"
    },
    {
      "inputs": [],
      "name": "totalTurns",
      "outputs": [
        {
          "internalType": "uint256",
          "name": "",
          "type": "uint256"
        }
      ],
      "stateMutability": "view",
      "type": "function"
    }
  ],
  "bytecode": "0x6080604052600f60009081556001805460ff19169055600255606460035534801561002957600080fd5b50612324806100396000396000f3fe608060405234801561001057600080fd5b50600436106100cf5760003560e01c806379f9607d1161008c578063d65ab5f211610066578063d65ab5f214610191578063dac103f314610199578063e142feac146101a1578063e2eb41ff146101aa57600080fd5b806379f9607d14610168578063a764366614610171578063b7d0628b1461017957600080fd5b806315c6aee2146100d457806330dad8151461010457806351f470041461011b57806355c9e926146101305780635e123ce4146101385780636b5cc6d914610155575b600080fd5b6100e76100e2366004611c30565b6101cf565b6040516001600160a01b0390911681526020015b60405180910390f35b61010d60035481565b6040519081526020016100fb565b61012e610129366004611ca5565b6101f9565b005b60055461010d565b6001546101459060ff1681565b60405190151581526020016100fb565b61012e610163366004611d57565b61023d565b61010d60005481565b61012e6104da565b61018161096b565b6040516100fb9493929190611de8565b61012e610b8f565b61012e610c98565b61010d60025481565b6101bd6101b8366004611d57565b610d8a565b6040516100fb96959493929190611e90565b600581815481106101df57600080fd5b6000918252602090912001546001600160a01b0316905081565b60005b81518110156102395761022782828151811061021a5761021a611ec9565b602002602001015161023d565b8061023181611ef5565b9150506101fc565b5050565b60015460ff16156102905760405162461bcd60e51b815260206004820152601860248201527711d85b59481a185cc8185b1c9958591e481cdd185c9d195960421b60448201526064015b60405180910390fd5b6001600160a01b0381166102e65760405162461bcd60e51b815260206004820152601f60248201527f496e76616c696420706c6179657220636f6e74726163742061646472657373006044820152606401610287565b6001600160a01b03818116600090815260046020526040902054161561034e5760405162461bcd60e51b815260206004820152601960248201527f506c6179657220616c72656164792072656769737465726564000000000000006044820152606401610287565b6000816001600160a01b03166306fdde036040518163ffffffff1660e01b8152600401600060405180830381865afa15801561038e573d6000803e3d6000fd5b505050506040513d6000823e601f3d908101601f191682016040526103b69190810190611f0e565b6040805160c0810182526001600160a01b03858116808352600060208085018281528587018381526064606088019081526080880185815260a089018b815296865260049485905298909420875181546001600160a01b03191697169690961786559051600186015551600285015590516003840155935193820193909355915192935091829190600582019061044d908261202a565b5050600580546001810182556000919091527f036b6384b5eca791c62761152d0c79bb0604c104a5fb6f4eb0703f3154bb3db00180546001600160a01b0319166001600160a01b038616179055506040517fe04d23b73ae3d3b27074da9719b5a4cd521395aaf86bfe7e374933ecb567731a906104cd90859085906120ea565b60405180910390a1505050565b60015460ff1661052c5760405162461bcd60e51b815260206004820152601860248201527f47616d6520686173206e6f7420737461727465642079657400000000000000006044820152606401610287565b6002805490600061053c83611ef5565b909155505060055460009067ffffffffffffffff81111561055f5761055f611c49565b6040519080825280602002602001820160405280156105b557816020015b6105a26040805160608101909152806000815260200160008152600060209091015290565b81526020019060019003908161057d5790505b5060055490915062030d409060009067ffffffffffffffff8111156105dc576105dc611c49565b604051908082528060200260200182016040528015610605578160200160208202803683370190505b5060055490915060009067ffffffffffffffff81111561062757610627611c49565b604051908082528060200260200182016040528015610650578160200160208202803683370190505b50905060008060008061066161096b565b935093509350935060005b845181101561083057600085828151811061068957610689611ec9565b6020026020010151905060008383815181106106a7576106a7611ec9565b602002602001015111156107f757604051636f8f3ef360e11b81526001600160a01b0382169063df1e7de6908b906106e9908a908a908a908a90600401611de8565b6060604051808303818786fa93505050508015610723575060408051601f3d908101601f1916820190925261072091810190612116565b60015b61078f5761072f610e55565b8a838151811061074157610741611ec9565b6020908102919091018101919091526040516001600160a01b03831681527fbc813f4973f042febf99889236238062096b2dd4979dc550e396dbf0f2e86c79910160405180910390a161081d565b6040516001600160a01b03831681527f702d471d1b7c122f1c3610b9be1f9ae1a74c70c92b21125c93364c96cfaf9a929060200160405180910390a16107d481610e9e565b8b84815181106107e6576107e6611ec9565b60200260200101819052505061081d565b6107ff610e55565b8a838151811061081157610811611ec9565b60200260200101819052505b508061082881611ef5565b91505061066c565b5061083c888787610f1c565b61084686866113d0565b61084e61096b565b60025460405194985092965090945092507fa908a97263ad0cd1c787eabeafe72d238ffd33cb882be25cc57aa311f1dde0749161089391908790879087908790612190565b60405180910390a16108a36114f2565b15610901576001805460ff1916905560006108bc611582565b6040516001600160a01b03821681529091507f51b77d00d3c0b7e376e9ee146711ceb2c08e58a5dbe38055a618e52109f720c19060200160405180910390a150610961565b60035460025410610961576001805460ff1916905560006109206115f6565b6040516001600160a01b03821681529091507f51b77d00d3c0b7e376e9ee146711ceb2c08e58a5dbe38055a618e52109f720c19060200160405180910390a1505b5050505050505050565b6005546060908190819081908067ffffffffffffffff81111561099057610990611c49565b6040519080825280602002602001820160405280156109b9578160200160208202803683370190505b5094508067ffffffffffffffff8111156109d5576109d5611c49565b6040519080825280602002602001820160405280156109fe578160200160208202803683370190505b5093508067ffffffffffffffff811115610a1a57610a1a611c49565b604051908082528060200260200182016040528015610a43578160200160208202803683370190505b5092508067ffffffffffffffff811115610a5f57610a5f611c49565b604051908082528060200260200182016040528015610a88578160200160208202803683370190505b50915060005b81811015610b8757600060058281548110610aab57610aab611ec9565b60009182526020808320909101546001600160a01b0316808352600490915260409091208851919250908290899085908110610ae957610ae9611ec9565b60200260200101906001600160a01b031690816001600160a01b0316815250508060010154878481518110610b2057610b20611ec9565b6020026020010181815250508060020154868481518110610b4357610b43611ec9565b6020026020010181815250508060030154858481518110610b6657610b66611ec9565b60200260200101818152505050508080610b7f90611ef5565b915050610a8e565b505090919293565b60055460021115610bfe5760405162461bcd60e51b815260206004820152603360248201527f4174206c656173742074776f20706c61796572732061726520726571756972656044820152726420746f207374617274207468652067616d6560681b6064820152608401610287565b610c06611691565b6001805460ff1916811790556040517f762f260439bb4be3ef6e4dc2786e2e7bd187d3d80b79057d7a424fe98563e33590600090a1600080600080610c4961096b565b93509350935093507fa908a97263ad0cd1c787eabeafe72d238ffd33cb882be25cc57aa311f1dde07460025485858585604051610c8a959493929190612190565b60405180910390a150505050565b60015460ff1615610ce65760405162461bcd60e51b815260206004820152601860248201527711d85b59481a185cc8185b1c9958591e481cdd185c9d195960421b6044820152606401610287565b60005b600554811015610d7b576004600060058381548110610d0a57610d0a611ec9565b60009182526020808320909101546001600160a01b03168352820192909252604001812080546001600160a01b03191681556001810182905560028101829055600381018290556004810182905590610d666005830182611bc7565b50508080610d7390611ef5565b915050610ce9565b50610d8860056000611c01565b565b60046020819052600091825260409091208054600182015460028301546003840154948401546005850180546001600160a01b039095169693959294919291610dd290611fa2565b80601f0160208091040260200160405190810160405280929190818152602001828054610dfe90611fa2565b8015610e4b5780601f10610e2057610100808354040283529160200191610e4b565b820191906000526020600020905b815481529060010190602001808311610e2e57829003601f168201915b5050505050905086565b610e7a6040805160608101909152806000815260200160008152600060209091015290565b60408051606081019091528060028152602001600081526000602090910152919050565b610ec36040805160608101909152806000815260200160008152600060209091015290565b815160029081811115610ed857610ed86121e3565b60ff161115610eef57610ee9610e55565b92915050565b602082015160089081811115610f0757610f076121e3565b60ff161115610f1857610ee9610e55565b5090565b610f2461187c565b60005b835181101561106d57600060058281548110610f4557610f45611ec9565b60009182526020808320909101546001600160a01b031680835260049091526040822087519193509190879085908110610f8157610f81611ec9565b602002602001015190506000826003015411610f9f5750505061105b565b600081516002811115610fb457610fb46121e3565b0361103557600080610fd38460010154856002015485602001516118dc565b91509150610fe18282611a45565b8015610ff55750610ff3828287611a5f565b155b1561102e57600180850183905560028501829055885189908890811061101d5761101d611ec9565b911515602092830291909101909101525b5050611057565b60028151600281111561104a5761104a6121e3565b0361105757603260048301555b5050505b8061106581611ef5565b915050610f27565b5060005b83518110156113ca5760006005828154811061108f5761108f611ec9565b60009182526020808320909101546001600160a01b0316808352600490915260408220875191935091908790859081106110cb576110cb611ec9565b6020026020010151905060008260030154116110e9575050506113b8565b6001815160028111156110fe576110fe6121e3565b036113b45760008061111d8460010154856002015485602001516118dc565b9150915060008061112e8484611b17565b90925090506001600160a01b038216156113af576001600160a01b03821660009081526004602052604081206003880154909190605010611170576032611173565b605a5b6002546040516bffffffffffffffffffffffff1960608d811b8216602084015288901b166034820152604881019190915260ff919091169150600090606490611208906068016040516020818303038152906040528051906020012060001c60408051426020808301919091524482840152606080830194909452825180830390940184526080909101909152815191012090565b611212919061220f565b905081811015611348576004830154601490156112955760648460040154606461123c9190612223565b6112469083612236565b611250919061224d565b90507fcd57432f5f8f925c035af755ab50d003678ffa68232032564a5c8b0002ff8d6b8b876001806040516112889493929190612261565b60405180910390a16112d5565b7fcd57432f5f8f925c035af755ab50d003678ffa68232032564a5c8b0002ff8d6b8b87600160006040516112cc9493929190612261565b60405180910390a15b8084600301541161132857600060038501556040516001600160a01b03871681527f314aad641dd21a90567a24ff4d847656e9641088af0f4f643b856125d669e6999060200160405180910390a1611342565b8084600301600082825461133c9190612223565b90915550505b50611387565b7fcd57432f5f8f925c035af755ab50d003678ffa68232032564a5c8b0002ff8d6b8a8660008060405161137e9493929190612261565b60405180910390a15b60018c858151811061139b5761139b611ec9565b911515602092830291909101909101525050505b505050505b5050505b806113c281611ef5565b915050611071565b50505050565b60005b6005548110156114ed576000600582815481106113f2576113f2611ec9565b60009182526020808320909101546001600160a01b03168083526004909152604090912060038101549192509061142a5750506114db565b84838151811061143c5761143c611ec9565b6020026020010151158015611468575083838151811061145e5761145e611ec9565b6020026020010151155b156114d8576005816003016000828254611482919061228c565b90915550506040516001600160a01b03831681527f7989af8341fb43b7b53563aabc822d561fe6e9f2b45f830238a4702bc21cb7149060200160405180910390a16064816003015411156114d857606460038201555b50505b806114e581611ef5565b9150506113d3565b505050565b600080805b600554811015611579576000600460006005848154811061151a5761151a611ec9565b60009182526020808320909101546001600160a01b031683528201929092526040019020600301541115611567578161155281611ef5565b92505060018211156115675760009250505090565b8061157181611ef5565b9150506114f7565b50600191505090565b6000805b6005548110156115ee576000600582815481106115a5576115a5611ec9565b60009182526020808320909101546001600160a01b03168083526004909152604090912060030154909150156115db5792915050565b50806115e681611ef5565b915050611586565b506000905090565b60008080805b600554811015611689576000600460006005848154811061161f5761161f611ec9565b60009182526020808320909101546001600160a01b03168352820192909252604001902060038101549091501580159061165c5750828160030154115b1561167657600381015481546001600160a01b0316945092505b508061168181611ef5565b9150506115fc565b509092915050565b6001805460ff19169055600060028190555b6000546116b09080612236565b8110156116df576000818152600660205260409020805460ff19169055806116d781611ef5565b9150506116a3565b5060005b6005548110156118795760006005828154811061170257611702611ec9565b60009182526020808320909101546001600160a01b031680835260049091526040822090925090805b6000546117389080612236565b600254604080514260208201524491810191909152606087811b6bffffffffffffffffffffffff19169082015260748101919091526094810184905260b4016040516020818303038152906040528051906020012060001c61179a919061220f565b9050816117a681611ef5565b60008381526006602052604090205490935060ff16905061172b576000818152600660205260408120805460ff19166001179055546117e5908261220f565b60018401556000546117f7908261224d565b600284015560646003840155600060048085018290556040805163d826f88f60e01b815290516001600160a01b0388169363d826f88f938381019391929182900301818387803b15801561184a57600080fd5b505af115801561185e573d6000803e3d6000fd5b5050505050505050808061187190611ef5565b9150506116e3565b50565b60005b60055481101561187957600060046000600584815481106118a2576118a2611ec9565b60009182526020808320909101546001600160a01b03168352820192909252604001902060040155806118d481611ef5565b91505061187f565b600080848460018560088111156118f5576118f56121e3565b0361190c5761190560018261229f565b9050611a39565b6002856008811115611920576119206121e3565b0361193d5761193060018361229f565b915061190560018261229f565b6003856008811115611951576119516121e3565b036119685761196160018361229f565b9150611a39565b600485600881111561197c5761197c6121e3565b036119995761198c60018361229f565b91506119056001826122c7565b60058560088111156119ad576119ad6121e3565b036119bd576119056001826122c7565b60068560088111156119d1576119d16121e3565b036119e15761198c6001836122c7565b60078560088111156119f5576119f56121e3565b03611a05576119616001836122c7565b6008856008811115611a1957611a196121e3565b03611a3957611a296001836122c7565b9150611a3660018261229f565b90505b90969095509350505050565b6000805483108015611a58575060005482105b9392505050565b6000805b600554811015611b0c57600060058281548110611a8257611a82611ec9565b6000918252602090912001546001600160a01b03908116915084168103611aa95750611afa565b6001600160a01b0381166000908152600460205260409020600381015415801590611ad75750868160010154145b8015611ae65750858160020154145b15611af75760019350505050611a58565b50505b80611b0481611ef5565b915050611a63565b506000949350505050565b60008060005b600554811015611bb75760006004600060058481548110611b4057611b40611ec9565b60009182526020808320909101546001600160a01b031683528201929092526040019020600381015490915015801590611b7d5750858160010154145b8015611b8c5750848160020154145b15611ba457546001600160a01b031692509050611bc0565b5080611baf81611ef5565b915050611b1d565b50600080915091505b9250929050565b508054611bd390611fa2565b6000825580601f10611be3575050565b601f0160209004906000526020600020908101906118799190611c1b565b508054600082559060005260206000209081019061187991905b5b80821115610f185760008155600101611c1c565b600060208284031215611c4257600080fd5b5035919050565b634e487b7160e01b600052604160045260246000fd5b604051601f8201601f1916810167ffffffffffffffff81118282101715611c8857611c88611c49565b604052919050565b6001600160a01b038116811461187957600080fd5b60006020808385031215611cb857600080fd5b823567ffffffffffffffff80821115611cd057600080fd5b818501915085601f830112611ce457600080fd5b813581811115611cf657611cf6611c49565b8060051b9150611d07848301611c5f565b8181529183018401918481019088841115611d2157600080fd5b938501935b83851015611d4b5784359250611d3b83611c90565b8282529385019390850190611d26565b98975050505050505050565b600060208284031215611d6957600080fd5b8135611a5881611c90565b600081518084526020808501945080840160005b83811015611dad5781516001600160a01b031687529582019590820190600101611d88565b509495945050505050565b600081518084526020808501945080840160005b83811015611dad57815187529582019590820190600101611dcc565b608081526000611dfb6080830187611d74565b8281036020840152611e0d8187611db8565b90508281036040840152611e218186611db8565b90508281036060840152611e358185611db8565b979650505050505050565b60005b83811015611e5b578181015183820152602001611e43565b50506000910152565b60008151808452611e7c816020860160208601611e40565b601f01601f19169290920160200192915050565b60018060a01b038716815285602082015284604082015283606082015282608082015260c060a08201526000611d4b60c0830184611e64565b634e487b7160e01b600052603260045260246000fd5b634e487b7160e01b600052601160045260246000fd5b600060018201611f0757611f07611edf565b5060010190565b600060208284031215611f2057600080fd5b815167ffffffffffffffff80821115611f3857600080fd5b818401915084601f830112611f4c57600080fd5b815181811115611f5e57611f5e611c49565b611f71601f8201601f1916602001611c5f565b9150808252856020828501011115611f8857600080fd5b611f99816020840160208601611e40565b50949350505050565b600181811c90821680611fb657607f821691505b602082108103611fd657634e487b7160e01b600052602260045260246000fd5b50919050565b601f8211156114ed57600081815260208120601f850160051c810160208610156120035750805b601f850160051c820191505b818110156120225782815560010161200f565b505050505050565b815167ffffffffffffffff81111561204457612044611c49565b612058816120528454611fa2565b84611fdc565b602080601f83116001811461208d57600084156120755750858301515b600019600386901b1c1916600185901b178555612022565b600085815260208120601f198616915b828110156120bc5788860151825594840194600190910190840161209d565b50858210156120da5787850151600019600388901b60f8161c191681555b5050505050600190811b01905550565b6001600160a01b038316815260406020820181905260009061210e90830184611e64565b949350505050565b60006060828403121561212857600080fd5b6040516060810181811067ffffffffffffffff8211171561214b5761214b611c49565b60405282516003811061215d57600080fd5b815260208301516009811061217157600080fd5b6020820152604083015161218481611c90565b60408201529392505050565b85815260a0602082015260006121a960a0830187611d74565b82810360408401526121bb8187611db8565b905082810360608401526121cf8186611db8565b90508281036080840152611d4b8185611db8565b634e487b7160e01b600052602160045260246000fd5b634e487b7160e01b600052601260045260246000fd5b60008261221e5761221e6121f9565b500690565b81810381811115610ee957610ee9611edf565b8082028115828204841417610ee957610ee9611edf565b60008261225c5761225c6121f9565b500490565b6001600160a01b03948516815292909316602083015215156040820152901515606082015260800190565b80820180821115610ee957610ee9611edf565b80820182811260008312801582168215821617156122bf576122bf611edf565b505092915050565b81810360008312801583831316838312821617156122e7576122e7611edf565b509291505056fea2646970667358221220928860118e0df61846da6b501bc83b875efc6eb5bb8962c04b508ef14ab4227d64736f6c63430008150033",
  "linkReferences": {},
  "deployedLinkReferences": {}
}